:020000040000FA
:08000000803102288731F42F42
:1009F20000348834343020009A0050309B000800C4
:100A02000230280097003030950008309600080028
:100A12002900940103309700B03095002000911016
:100A22000800F43021009B001C1E152D0D108D14A2
:100A32000D158D1523000D108D100D118D11FB302C
:100A420021008C00A0302B008E008431FB248531E4
:100A5200853109258531853101258531013029000E
:100A6200940020009110290095172000B401B501CF
:100A7200B301B201962E0D1014302800940020000C
:100A820014102800951720001418672D340335041C
:100A9200031D442D360884003708850000082B000A
:100AA2008F000D1420003708F1003608F0000230E4
:100AB2007007840071080318710A8500003FB600B0
:100AC200013FB700911C632D9110442D14100D1499
:100AD20014302800940020001410280095172000DC
:100AE2001418932D34033504031D702D3608840029
:100AF2003708850000082B008F000D1420003708EE
:100B0200F1003608F0000230700784007108031803
:100B1200710A8500003FB600013FB700911C8F2D7E
:100B22009110702D14100D10000020008D18B92D99
:100B320034033504031D962D3608840037088500DA
:100B420000082B008F000D1420003708F100360832
:100B5200F00002307007840071080318710A8500E2
:100B6200003FB600013FB700911CB52D9110962DA4
:100B72001110990198011A14DD2D34033504031D57
:100B8200DD2D360884003708850000082B008F0011
:100B92000D1420003708F1003608F000023070070B
:100BA200840071080318710A8500003FB600013FF6
:100BB200B700911CDA2D91101118E12D8D18BE2D60
:100BC2001908F000F101F201F3017308A50072089F
:100BD200A4007108A3007008A2001808F000F10137
:100BE200F201F3012208F4002308F5002408F600BC
:100BF2002508F7000830F435F50DF60DF70D890BD1
:100C0200FC2D7408F0077508F13D7608F23D77086F
:100C1200F33D7308A5007208A4007108A3007008D0
:100C2200A2002208F0002308F1002408F20025089F
:100C3200F3000230F035F10DF20DF30D890B1B2E8E
:100C42002208F4002308F5002408F6002508F7001E
:100C52000430F435F50DF60DF70D890B2A2E7408C4
:100C6200F0077508F13D7608F23D7708F33D730809
:100C7200A9007208A8007108A7007008A60026083B
:100C8200F0002708F1002808F2002908F3000A30D2
:100C9200F336F20CF10CF00C890B492E7308A90003
:100CA2007208A8007108A7007008A6002908031D91
:100CB200712E2808031D712E2708031D712E78300E
:100CC20026020318712E2608290094002000911094
:100CD2002900951701302000B4000030B500742EB1
:100CE2009114B401B5011118962E34033504031D75
:100CF200742E360884003708850000082B008F0008
:100D02000D1420003708F1003608F0000230700799
:100D1200840071080318710A8500003FB600013F84
:100D2200B700911C922E9110742E2B008F0190010E
:100D32000D1420001110990198011A148D193C2DDF
:100D420032080319DB2FB2010D1014302800940071
:100D5200200014102800951720001418D02E3403F8
:100D62003504031DAD2E36088400370885000008BF
:100D72002B008F000D1420003708F1003608F00018
:100D820002307007840071080318710A8500003F61
:100D9200B600013FB700911CCC2E9110AD2E14105D
:100DA2000D14143028009400200014102800951708
:100DB20020001418FC2E34033504031DD92E3608E6
:100DC20084003708850000082B008F000D142000D6
:100DD2003708F1003608F00002307007840071080D
:100DE2000318710A8500003FB600013FB700911C4D
:100DF200F82E9110D92E14100D10000020008D1C19
:100E0200FF2E1110990198011A14092F11180B2F96
:100E12008D18072F1118962E1908F000F101F20112
:100E2200F3017308AD007208AC007108AB007008E2
:100E3200AA001808F000F101F201F3012A08F400F7
:100E42002B08F5002C08F6002D08F7000830F435C1
:100E5200F50DF60DF70D890B282F7408F0077508AC
:100E6200F13D7608F23D7708F33D7308AD00720854
:100E7200AC007108AB007008AA002A08F0002B0829
:100E8200F1002C08F2002D08F3000230F035F10DCC
:100E9200F20DF30D890B472F2A08F4002B08F500F9
:100EA2002C08F6002D08F7000430F435F50DF60D88
:100EB200F70D890B562F7408F0077508F13D760877
:100EC200F23D7708F33D7308B1007208B000710873
:100ED200AF007008AE002E08F0002F08F1003008B5
:100EE200F2003108F3000A30F336F20CF10CF00C88
:100EF200890B752F7308B1007208B0007108AF003A
:100F02007008AE003108031D9D2F3008031D9D2F70
:100F12002F08031D9D2F78302E0203189D2F2E08B7
:100F2200290094002000911029009517013020001B
:100F3200B4000030B500A02F9114B401B5010A30FD
:100F4200A0000030A1002108803AF0008030700239
:100F5200031DAD2F01302002031CF02F20001110C1
:100F6200990198011A141118D62F34033504031D60
:100F7200B42F360884003708850000082B008F0044
:100F82000D1420003708F1003608F0000230700717
:100F9200840071080318710A8500003FB600013F02
:100FA200B700911CD22F9110B42FFF30A007FF3051
:100FB200A13DA42F0D1DE92F3308031DE92F013098
:100FC200F0007008B3000130F0007008B200F02F9A
:100FD2000D1DEE2F33030319962EB301B20120002B
:100FE2001118962EF02F8431F9248731B6008431FE
:100FF200FA24B700B401B50120008531122D8034E6
:101002000034043488349034003408348834A034F2
:1010120000340C348834B034003410348834BF3493
:10102200003414348834CD34003418348834DA343B
:1010320000341C348834E534003420348834EE34EF
:10104200003424348834F534003428348834FB34B2
:1010520000342C348834FE34003430348834FF3485
:10106200003434348834FE34003438348834FB3469
:1010720000343C348834F534003440348834EE345F
:10108200003444348834E534003448348834DA3463
:1010920000344C348834CD34003450348834BF3476
:1010A200003454348834B034003458348834A03492
:1010B20000345C34883490340034603488348034B2
:1010C2000034643488346F340034683488345F34D4
:1010D20000346C3488344F340034703488344034F3
:1010E200003474348834323400347834883425340B
:1010F20000347C3488341A34003480348834113417
:101102000034843488340A34003488348834043413
:1011120000348C3488340134003490348834003400
:1011220000349434883401340034983488340434DC
:1011320000349C3488340A340034A03488341134A6
:101142000034A43488341A340034A8348834253462
:101152000034AC34883432340034B034883440340F
:101162000034B43488344F340034B83488345F34B3
:101172000034BC3488346F340034C0348834803452
:0611820000340034883443
:020000040001F9
:04000E00E4FFFFFF0D
:00000001FF
