:020000040000FA
:0400000080312828FB
:100008007E148031200038083904031926283A085C
:1000180084003B08850000082B008F000D14200089
:100028003B08F1003A08F0000230700784007108BC
:100038000318710A8500003FBA00013FBB00911CFC
:10004800232891107E10090080312A288331F22359
:100058008031BA008331F323BB00F301B801B90141
:100068007E10200080313828F43021009B001C1EAF
:100078003B280D108D140D158D1523000D108D10B6
:100088000D118D11FB3021008C00A0302B008E004B
:10009800013090008331EC2380318331DB238031C0
:1000A8008331E4238031013029009400200091102D
:1000B800290095172000B801B901B701B601BE297A
:1000C8000D101430280094002000141028009517F3
:1000D800200014188F283808390403196C283A08A6
:1000E80084003B08850000082B008F000D142000B9
:1000F8003B08A1003A08A00002302007840021082C
:100108000318210A8500003FBA00013FBB00911C7B
:100118008B2891106C2814100D14143028009400AA
:10012800200014102800951720001418BB28380840
:100138003904031998283A0884003B088500000808
:100148002B008F000D1420003B08A1003A08A000E6
:1001580002302007840021080318210A8500003F87
:10016800BA00013FBB00911CB728911098281410C1
:100178000D10000020008D18E128380839040319F3
:10018800BE283A0884003B08850000082B008F0031
:100198000D1420003B08A1003A08A00002302007F7
:1001A800840021080318210A8500003FBA00013F96
:1001B800BB00911CDD289110BE28111099019801EF
:1001C8001A14052938083904031905293A0884003E
:1001D8003B08850000082B008F000D1420003B0809
:1001E800A1003A08A0000230200784002108031863
:1001F800210A8500003FBA00013FBB00911C02297B
:100208009110111809298D18E6281908A000A101D4
:10021800A201A3012308B5002208B4002108B300F5
:100228002008B2001808A000A101A201A301320809
:10023800A4003308A5003408A6003508A700083034
:10024800A435A50DA60DA70D890B24292408A00700
:100258002508A13D2608A23D2708A33D2308B5008F
:100268002208B4002108B3002008B2003208A00018
:100278003308A1003408A2003508A3000230A035D5
:10028800A10DA20DA30D890B43293208A400330840
:10029800A5003408A6003508A7000430A435A50D2C
:1002A800A60DA70D890B52292408A0072508A13DF2
:1002B8002608A23D2708A33D2308AD002208AC006C
:1002C8002108AB002008AA002A08A0002B08A100DA
:1002D8002C08A2002D08A3000A30A336A20CA10CFA
:1002E800A00C890B71292308AD002208AC00210855
:1002F800AB002008AA002D08031D99292C08031D0E
:1003080099292B08031D992950302A020318992985
:100318002A0829009400200091102900951701301F
:100328002000B8000030B9009C299114B801B90127
:100338001118BE293808390403199C293A08840081
:100348003B08850000082B008F000D1420003B0897
:10035800A1003A08A00002302007840021080318F1
:10036800210A8500003FBA00013FBB00911CBA2951
:1003780091109C291110990198011A148D1964285B
:1003880036080319FE2AB6010D101430280094000F
:10039800200014102800951720001418F329380895
:1003A80039040319D0293A0884003B08850000085D
:1003B8002B008F000D1420003B08A1003A08A00074
:1003C80002302007840021080318210A8500003F15
:1003D800BA00013FBB00911CEF299110D0291410DD
:1003E8000D141430280094002000141028009517CC
:1003F800200014181F2A380839040319FC293A0860
:1004080084003B08850000082B008F000D14200095
:100418003B08A1003A08A000023020078400210808
:100428000318210A8500003FBA00013FBB00911C58
:100438001B2A9110FC2914100D10000020008D1C9F
:10044800222A1110990198011A142C2A11182E2AFF
:100458008D182A2A1118BE291908A000A101A20185
:10046800A3012308B5002208B4002108B30020081E
:10047800B2001808A000A101A201A3013208A4003B
:100488003308A5003408A6003508A7000830A435AD
:10049800A50DA60DA70D890B4B2A2408A007250832
:1004A800A13D2608A23D2708A33D2308B500220840
:1004B800B4002108B3002008B2003208A0003308B5
:1004C800A1003408A2003508A3000230A035A10D10
:1004D800A20DA30D890B6A2A3208A4003308A500CF
:1004E8003408A6003508A7000430A435A50DA60DCC
:1004F800A70D890B792A2408A0072508A13D2608FD
:10050800A23D2708A33D2308B1002208B000210816
:10051800AF002008AE002E08A0002F08A100300868
:10052800A2003108A3000A30A336A20CA10CA00C2B
:10053800890B982A2308B1002208B0002108AF00CF
:100548002008AE003108031DC02A3008031DC02A48
:100558002F08031DC02A50302E020318C02A2E0867
:1005680029009400200091102900951701302000DF
:10057800B8000030B900C32A9114B801B9010A3093
:10058800A8000030A9002908803AA0008030200285
:10059800031DD02A01302802031C132B2000111040
:1005A800990198011A141118F92A380839040319FD
:1005B800D72A3A0884003B08850000082B008F00E2
:1005C8000D1420003B08A1003A08A00002302007C3
:1005D800840021080318210A8500003FBA00013F62
:1005E800BB00911CF52A9110D72AFF30A807FF30CD
:1005F800A93DC72A0D1D0C2B3708031D0C2B0130F4
:10060800A0002008B7000130A0002008B600132B76
:100618000D1D112B37030319BE29B701B6012000A0
:100628001118BE29132B803400341B3483349034C2
:1006380000341F348334A034003423348334B0347A
:10064800003427348334BF3400342B348334CD341E
:1006580000342F348334DA34003433348334E534CB
:10066800003437348334EE3400343B348334F53487
:1006780000343F348334FB34003443348334FE3451
:10068800003447348334FF3400344B348334FE342D
:1006980000344F348334FB34003453348334F5341A
:1006A800003457348334EE3400345B348334E53417
:1006B80000345F348334DA34003463348334CD3423
:1006C800003467348334BF3400346B348334B0343B
:1006D80000346F348334A03400347334833490345A
:1006E800003477348334803400347B3483346F347B
:1006F80000347F3483345F340034833483344F349C
:10070800003487348334403400348B3483343234B7
:1007180000348F34833425340034933483341A34CA
:10072800003497348334113400349B3483340A34CE
:1007380000349F34833404340034A33483340134C4
:100748000034A734833400340034AB3483340134A8
:100758000034AF34833404340034B33483340A347B
:100768000034B734833411340034BB3483341A343E
:100778000034BF34833425340034C33483343234F2
:100788000034C734833440340034CB3483344F349A
:100798000034CF3483345F340034D33483346F343B
:1007A8000034D73483348034003417348334290038
:1007B800940103309700B030950020009110080094
:1007C8000230280097003030950008309600080065
:1007D800343020009A0050309B00080017348334CE
:020000040001F9
:04000E00E4FFFFFF0D
:00000001FF
