:020000040000FA
:040000008031212802
:100008007E14803120003008840031088500000803
:100018002B008F000D1420003108F1003008F0008B
:1000280002307007840071080318710A8500003FC8
:10003800B000013FB1007E10090080312328F30190
:100048002000B201B3017E1020008431E12C00347D
:1000580002342F3480341034023433348034203462
:10006800023437348034303402343B348034403402
:1000780002343F34803450340234433480345F34A3
:100088000234473480346F3402344B3480347F3444
:1000980002344F3480348E340234533480349E34E6
:1000A800023457348034AD3402345B348034BC3489
:1000B80002345F348034CB34023463348034D9342E
:1000C800023467348034E83402346B348034F634D4
:1000D80002346F348034043403347334803412347B
:1000E8000334773480341F3403347B3480342C3425
:1000F80003347F34803439340334833480344634D1
:10010800033487348034523403348B3480345E347F
:1001180003348F3480346934033493348034743432
:100128000334973480347F3403349B3480348A34E6
:1001380003349F34803494340334A33480349D349E
:100148000334A7348034A7340334AB348034AF3459
:100158000334AF348034B8340334B3348034C03417
:100168000334B7348034C7340334BB348034CE34DA
:100178000334BF348034D5340334C3348034DB349F
:100188000334C7348034E1340334CB348034E63468
:100198000334CF348034EB340334D3348034EF3435
:1001A8000334D7348034F3340334DB348034F63406
:1001B8000334DF348034F9340334E3348034FB34DB
:1001C8000334E7348034FD340334EB348034FE34B4
:1001D8000334EF348034FF340334F3348034FF3491
:1001E8000334F7348034FF340334FB348034FE3472
:1001F8000334FF348034FD34033403348134FB3456
:10020800033407348134F93403340B348134F6343D
:1002180003340F348134F334033413348134EF342A
:10022800033417348134EB3403341B348134E6341B
:1002380003341F348134E134033423348134DB3410
:10024800033427348134D53403342B348134CE3409
:1002580003342F348134C734033433348134C03405
:10026800033437348134B83403343B348134AF3405
:1002780003343F348134A7340334433481349D3408
:10028800033447348134943403344B3481348A340E
:1002980003344F3481347F34033453348134743419
:1002A800033457348134693403345B3481345E3425
:1002B80003345F3481345234033463348134463434
:1002C800033467348134393403346B3481342C3447
:1002D80003346F3481341F3403347334813412345B
:1002E800033477348134043403347B348134F63472
:1002F80002347F348134E834023483348134D9348D
:10030800023487348134CB3402348B348134BC34A6
:1003180002348F348134AD340234933481349E34C2
:100328000234973481348E3402349B3481347F34E0
:1003380002349F3481346F340234A33481345F34FF
:100348000234A734813450340234AB34813440341D
:100358000234AF34813430340234B334813420343D
:100368000234B734813410340234BB34813400345D
:100378000234BF348134EF340134C3348134DF3480
:100388000134C7348134CF340134CB348134BF34A1
:100398000134CF348134AF340134D3348134A034C0
:1003A8000134D734813490340134DB3481348034DF
:1003B8000134DF34813471340134E33481346134FD
:1003C8000134E734813452340134EB34813443341A
:1003D8000134EF34813434340134F3348134263435
:1003E8000134F734813417340134FB34813409344F
:1003F8000134FF348134FB34003403348234ED3467
:10040800003407348234E03400340B348234D3347B
:1004180000340F348234C634003413348234B9348F
:10042800003417348234AD3400341B348234A134A0
:1004380000341F34823496340034233482348B34AD
:10044800003427348234803400342B3482347534B9
:1004580000342F3482346B340034333482346234C1
:10046800003437348234583400343B3482345034C6
:1004780000343F34823447340034433482343F34C8
:10048800003447348234383400344B3482343134C5
:1004980000344F3482342A340034533482342434C0
:1004A8000034573482341E3400345B3482341934B7
:1004B80000345F34823414340034633482341034AA
:1004C8000034673482340C3400346B348234093499
:1004D80000346F3482340634003473348234043484
:1004E800003477348234023400347B34823401346B
:1004F80000347F348234003400348334823400344E
:10050800003487348234003400348B34823401342C
:1005180000348F3482340234003493348234043407
:10052800003497348234063400349B3482340934DE
:1005380000349F3482340C340034A33482341034B1
:100548000034A734823414340034AB348234193480
:100558000034AF3482341E340034B334823424344B
:100568000034B73482342A340034BB348234313412
:100578000034BF34823438340034C33482343F34D6
:100588000034C734823447340034CB348234503496
:100598000034CF34823458340034D3348234623453
:1005A8000034D73482346B340034DB34823475340D
:1005B8000034DF34823480340034E33482348B34C2
:1005C8000034E734823496340034EB348234A13476
:1005D8000034EF348234AD340034F3348234B93427
:1005E8000034F7348234C6340034FB348234D334D4
:1005F8000034FF348234E034003403348334ED347F
:10060800003407348334FB3400340B348334093426
:1006180001340F34833417340134133483342634CB
:10062800013417348334343401341B348334433471
:1006380001341F3483345234013423348334613415
:10064800013427348334713401342B3483348034B7
:1006580001342F3483349034013433348334A03458
:10066800013437348334AF3401343B348334BF34FA
:1006780001343F348334CF34013443348334DF349A
:10068800013447348334EF3401344B348334003439
:1006980002342B34803400340234103402342034D1
:1006A80002343034023440340234503402345F347B
:1006B80002346F3402347F3402348E3402349E3470
:1006C8000234AD340234BC340234CB340234D9346D
:1006D8000234E8340234F634023404340334123475
:1006E80003341F3403342C3403343934033446348C
:1006F8000334523403345E340334693403347434B9
:1007080003347F3403348A340334943403349D34FB
:100718000334A7340334AF340334B8340334C03457
:100728000334C7340334CE340334D5340334DB34D0
:100738000334E1340334E6340334EB340334EF3464
:100748000334F3340334F6340334F9340334FB3418
:100758000334FD340334FE340334FF340334FF34EC
:100768000334FF340334FE340334FD340334FB34E0
:100778000334F9340334F6340334F3340334EF34F4
:100788000334EB340334E6340334E1340334DB3428
:100798000334D5340334CE340334C7340334C0347B
:1007A8000334B8340334AF340334A73403349D34EA
:1007B8000334943403348A3403347F340334743474
:1007C8000334693403345E34033452340334463416
:1007D8000334393403342C3403341F3403341234CF
:1007E800033404340334F6340234E8340234D9349C
:1007F8000234CB340234BC340234AD3402349E3477
:1008080002348E3402347F3402346F3402345F345D
:100818000234503402344034023430340234203448
:1008280002341034023400340234EF340134DF343B
:100838000134CF340134BF340134AF340134A0342F
:10084800013490340134803401347134013461341A
:1008580001345234013443340134343401342634FD
:1008680001341734013409340134FB340034ED34D5
:100878000034E0340034D3340034C6340034B9349E
:100888000034AD340034A1340034963400348B3451
:10089800003480340034753400346B3400346234EE
:1008A80000345834003450340034473400343F3472
:1008B800003438340034313400342A3400342434D9
:1008C80000341E3400341934003414340034103425
:1008D80000340C3400340934003406340034043451
:1008E800003402340034013400340034003400345D
:1008F8000034003400340134003402340034043449
:10090800003406340034093400340C340034103414
:10091800003414340034193400341E3400342434C0
:1009280000342A34003431340034383400343F344D
:1009380000344734003450340034583400346234BE
:1009480000346B34003475340034803400348B3414
:10095800003496340034A1340034AD340034B93452
:100968000034C6340034D3340034E0340034ED3479
:100978000034FB340034093401341734013426348C
:100988000134343401344334013452340134613491
:100998000134713401348034013490340134A0348A
:1009A8000134AF340134BF340134CF340134DF347F
:1009B8000134EF340134003402342B302000B0000D
:1009C8008030B100F43021009B001C1EE92C0D1072
:1009D8008D1423000D108D10FB3021008C00A030E9
:1009E8002B008E0086311B26843186310A268431FD
:1009F8008631132684312000B201B3010D10143062
:100A08002800940020001410280095172000141CBA
:100A18000A2D14100D14143028009400200014100E
:100A2800280095172000141C162D14100D10000016
:100A380020008D183B2D30088400310885000008FF
:100A48002B008F000D1420003108A1003008A000F1
:100A580002302007840021080318210A8500003F7E
:100A6800B000013FB100911C372D91101C2D1110C1
:100A7800990198011A145B2D30088400310885000B
:100A880000082B008F000D1420003108A100300849
:100A9800A00002302007840021080318210A8500DD
:100AA800003FB000013FB100911C582D9110111862
:100AB8005F2D8D18402D1908A000A101A201A301E6
:100AC8002308AF002208AE002108AD002008AC00C2
:100AD8001808A000A101A201A3012C08A4002D0858
:100AE800A5002E08A6002F08A7000830A435A50DDC
:100AF800A60DA70D890B7A2D2408A0072508A13D6E
:100B08002608A23D2708A33D2308AF002208AE000F
:100B18002108AD002008AC002C08A0002D08A10079
:100B28002E08A2002F08A3000230A035A10DA20DA7
:100B3800A30D890B992D2C08A4002D08A5002E08BB
:100B4800A6002F08A7000430A435A50DA60DA70DF3
:100B5800890BA82D2408A0072508A13D2608A23D39
:100B68002708A33D2308AB002208AA002108A900F2
:100B78002008A8002808A0002908A1002A08A20027
:100B88002B08A3000A30A336A20CA10CA00C890BD9
:100B9800C72D2308AB002208AA002108A9002008B5
:100BA800A8002B08031DEA2D2A08031DEA2D290891
:100BB800031DEA2DFF3028020318EA2D2808290012
:100BC80094002000911029009517EB2D9114200016
:100BD8001118022D300884003108850000082B0008
:100BE8008F000D1420003108A1003008A000023049
:100BF8002007840021080318210A8500003FB0005F
:100C0800013FB100911C062E9110EB2D2900940193
:100C180002309700D0309500200091100800023073
:100C280028009700303095000830960008003430CE
:0A0C380020009A0050309B000800D5
:020000040001F9
:04000E00E4FFFFFF0D
:00000001FF
